{
  "_format": "hh-sol-artifact-1",
  "contractName": "NFT",
  "sourceName": "contracts/NftMarket.sol",
  "abi": [
    {
      "inputs": [
        {
          "internalType": "string",
          "name": "name",
          "type": "string"
        },
        {
          "internalType": "string",
          "name": "symbol",
          "type": "string"
        }
      ],
      "stateMutability": "nonpayable",
      "type": "constructor"
    },
    {
      "inputs": [
        {
          "internalType": "address",
          "name": "sender",
          "type": "address"
        },
        {
          "internalType": "uint256",
          "name": "tokenId",
          "type": "uint256"
        },
        {
          "internalType": "address",
          "name": "owner",
          "type": "address"
        }
      ],
      "name": "ERC721IncorrectOwner",
      "type": "error"
    },
    {
      "inputs": [
        {
          "internalType": "address",
          "name": "operator",
          "type": "address"
        },
        {
          "internalType": "uint256",
          "name": "tokenId",
          "type": "uint256"
        }
      ],
      "name": "ERC721InsufficientApproval",
      "type": "error"
    },
    {
      "inputs": [
        {
          "internalType": "address",
          "name": "approver",
          "type": "address"
        }
      ],
      "name": "ERC721InvalidApprover",
      "type": "error"
    },
    {
      "inputs": [
        {
          "internalType": "address",
          "name": "operator",
          "type": "address"
        }
      ],
      "name": "ERC721InvalidOperator",
      "type": "error"
    },
    {
      "inputs": [
        {
          "internalType": "address",
          "name": "owner",
          "type": "address"
        }
      ],
      "name": "ERC721InvalidOwner",
      "type": "error"
    },
    {
      "inputs": [
        {
          "internalType": "address",
          "name": "receiver",
          "type": "address"
        }
      ],
      "name": "ERC721InvalidReceiver",
      "type": "error"
    },
    {
      "inputs": [
        {
          "internalType": "address",
          "name": "sender",
          "type": "address"
        }
      ],
      "name": "ERC721InvalidSender",
      "type": "error"
    },
    {
      "inputs": [
        {
          "internalType": "uint256",
          "name": "tokenId",
          "type": "uint256"
        }
      ],
      "name": "ERC721NonexistentToken",
      "type": "error"
    },
    {
      "anonymous": false,
      "inputs": [
        {
          "indexed": true,
          "internalType": "address",
          "name": "owner",
          "type": "address"
        },
        {
          "indexed": true,
          "internalType": "address",
          "name": "approved",
          "type": "address"
        },
        {
          "indexed": true,
          "internalType": "uint256",
          "name": "tokenId",
          "type": "uint256"
        }
      ],
      "name": "Approval",
      "type": "event"
    },
    {
      "anonymous": false,
      "inputs": [
        {
          "indexed": true,
          "internalType": "address",
          "name": "owner",
          "type": "address"
        },
        {
          "indexed": true,
          "internalType": "address",
          "name": "operator",
          "type": "address"
        },
        {
          "indexed": false,
          "internalType": "bool",
          "name": "approved",
          "type": "bool"
        }
      ],
      "name": "ApprovalForAll",
      "type": "event"
    },
    {
      "anonymous": false,
      "inputs": [
        {
          "indexed": false,
          "internalType": "uint256",
          "name": "_fromTokenId",
          "type": "uint256"
        },
        {
          "indexed": false,
          "internalType": "uint256",
          "name": "_toTokenId",
          "type": "uint256"
        }
      ],
      "name": "BatchMetadataUpdate",
      "type": "event"
    },
    {
      "anonymous": false,
      "inputs": [
        {
          "indexed": false,
          "internalType": "uint256",
          "name": "_tokenId",
          "type": "uint256"
        }
      ],
      "name": "MetadataUpdate",
      "type": "event"
    },
    {
      "anonymous": false,
      "inputs": [
        {
          "indexed": true,
          "internalType": "address",
          "name": "from",
          "type": "address"
        },
        {
          "indexed": true,
          "internalType": "address",
          "name": "to",
          "type": "address"
        },
        {
          "indexed": true,
          "internalType": "uint256",
          "name": "tokenId",
          "type": "uint256"
        }
      ],
      "name": "Transfer",
      "type": "event"
    },
    {
      "anonymous": false,
      "inputs": [
        {
          "indexed": true,
          "internalType": "uint256",
          "name": "tokenId",
          "type": "uint256"
        },
        {
          "indexed": true,
          "internalType": "address",
          "name": "seller",
          "type": "address"
        },
        {
          "indexed": true,
          "internalType": "address",
          "name": "owner",
          "type": "address"
        },
        {
          "indexed": false,
          "internalType": "uint256",
          "name": "price",
          "type": "uint256"
        },
        {
          "indexed": false,
          "internalType": "bool",
          "name": "sold",
          "type": "bool"
        }
      ],
      "name": "idMarketItemCreated",
      "type": "event"
    },
    {
      "inputs": [
        {
          "internalType": "uint256",
          "name": "_listingPrice",
          "type": "uint256"
        }
      ],
      "name": "UpdateListingPrice",
      "outputs": [],
      "stateMutability": "payable",
      "type": "function"
    },
    {
      "inputs": [],
      "name": "_name",
      "outputs": [
        {
          "internalType": "string",
          "name": "",
          "type": "string"
        }
      ],
      "stateMutability": "view",
      "type": "function"
    },
    {
      "inputs": [],
      "name": "_symbol",
      "outputs": [
        {
          "internalType": "string",
          "name": "",
          "type": "string"
        }
      ],
      "stateMutability": "view",
      "type": "function"
    },
    {
      "inputs": [
        {
          "internalType": "address",
          "name": "to",
          "type": "address"
        },
        {
          "internalType": "uint256",
          "name": "tokenId",
          "type": "uint256"
        }
      ],
      "name": "approve",
      "outputs": [],
      "stateMutability": "nonpayable",
      "type": "function"
    },
    {
      "inputs": [
        {
          "internalType": "address",
          "name": "owner",
          "type": "address"
        }
      ],
      "name": "balanceOf",
      "outputs": [
        {
          "internalType": "uint256",
          "name": "",
          "type": "uint256"
        }
      ],
      "stateMutability": "view",
      "type": "function"
    },
    {
      "inputs": [
        {
          "internalType": "uint256",
          "name": "tokenIdToBurn",
          "type": "uint256"
        }
      ],
      "name": "burnNFT",
      "outputs": [],
      "stateMutability": "payable",
      "type": "function"
    },
    {
      "inputs": [
        {
          "internalType": "uint256",
          "name": "Id",
          "type": "uint256"
        },
        {
          "internalType": "uint256",
          "name": "price",
          "type": "uint256"
        }
      ],
      "name": "createMarketItem",
      "outputs": [],
      "stateMutability": "nonpayable",
      "type": "function"
    },
    {
      "inputs": [
        {
          "internalType": "uint256",
          "name": "Id",
          "type": "uint256"
        }
      ],
      "name": "createMarketSale",
      "outputs": [],
      "stateMutability": "payable",
      "type": "function"
    },
    {
      "inputs": [
        {
          "internalType": "string",
          "name": "tokenURI",
          "type": "string"
        },
        {
          "internalType": "uint256",
          "name": "price",
          "type": "uint256"
        }
      ],
      "name": "createNFT",
      "outputs": [
        {
          "internalType": "uint256",
          "name": "",
          "type": "uint256"
        }
      ],
      "stateMutability": "payable",
      "type": "function"
    },
    {
      "inputs": [],
      "name": "getAllNft",
      "outputs": [
        {
          "components": [
            {
              "internalType": "uint256",
              "name": "tokenId",
              "type": "uint256"
            },
            {
              "internalType": "string",
              "name": "NftURI",
              "type": "string"
            },
            {
              "internalType": "address payable",
              "name": "seller",
              "type": "address"
            },
            {
              "internalType": "address payable",
              "name": "owner",
              "type": "address"
            },
            {
              "internalType": "uint256",
              "name": "price",
              "type": "uint256"
            },
            {
              "internalType": "bool",
              "name": "sold",
              "type": "bool"
            }
          ],
          "internalType": "struct NFT.MarketItem[]",
          "name": "",
          "type": "tuple[]"
        }
      ],
      "stateMutability": "view",
      "type": "function"
    },
    {
      "inputs": [
        {
          "internalType": "uint256",
          "name": "tokenId",
          "type": "uint256"
        }
      ],
      "name": "getApproved",
      "outputs": [
        {
          "internalType": "address",
          "name": "",
          "type": "address"
        }
      ],
      "stateMutability": "view",
      "type": "function"
    },
    {
      "inputs": [],
      "name": "getListedItems",
      "outputs": [
        {
          "components": [
            {
              "internalType": "uint256",
              "name": "tokenId",
              "type": "uint256"
            },
            {
              "internalType": "string",
              "name": "NftURI",
              "type": "string"
            },
            {
              "internalType": "address payable",
              "name": "seller",
              "type": "address"
            },
            {
              "internalType": "address payable",
              "name": "owner",
              "type": "address"
            },
            {
              "internalType": "uint256",
              "name": "price",
              "type": "uint256"
            },
            {
              "internalType": "bool",
              "name": "sold",
              "type": "bool"
            }
          ],
          "internalType": "struct NFT.MarketItem[]",
          "name": "",
          "type": "tuple[]"
        }
      ],
      "stateMutability": "view",
      "type": "function"
    },
    {
      "inputs": [],
      "name": "getListingPrice",
      "outputs": [
        {
          "internalType": "uint256",
          "name": "",
          "type": "uint256"
        }
      ],
      "stateMutability": "view",
      "type": "function"
    },
    {
      "inputs": [],
      "name": "getMarketItem",
      "outputs": [
        {
          "components": [
            {
              "internalType": "uint256",
              "name": "tokenId",
              "type": "uint256"
            },
            {
              "internalType": "string",
              "name": "NftURI",
              "type": "string"
            },
            {
              "internalType": "address payable",
              "name": "seller",
              "type": "address"
            },
            {
              "internalType": "address payable",
              "name": "owner",
              "type": "address"
            },
            {
              "internalType": "uint256",
              "name": "price",
              "type": "uint256"
            },
            {
              "internalType": "bool",
              "name": "sold",
              "type": "bool"
            }
          ],
          "internalType": "struct NFT.MarketItem[]",
          "name": "",
          "type": "tuple[]"
        }
      ],
      "stateMutability": "view",
      "type": "function"
    },
    {
      "inputs": [],
      "name": "getMyNFT",
      "outputs": [
        {
          "components": [
            {
              "internalType": "uint256",
              "name": "tokenId",
              "type": "uint256"
            },
            {
              "internalType": "string",
              "name": "NftURI",
              "type": "string"
            },
            {
              "internalType": "address payable",
              "name": "seller",
              "type": "address"
            },
            {
              "internalType": "address payable",
              "name": "owner",
              "type": "address"
            },
            {
              "internalType": "uint256",
              "name": "price",
              "type": "uint256"
            },
            {
              "internalType": "bool",
              "name": "sold",
              "type": "bool"
            }
          ],
          "internalType": "struct NFT.MarketItem[]",
          "name": "",
          "type": "tuple[]"
        }
      ],
      "stateMutability": "view",
      "type": "function"
    },
    {
      "inputs": [
        {
          "internalType": "address",
          "name": "owner",
          "type": "address"
        },
        {
          "internalType": "address",
          "name": "operator",
          "type": "address"
        }
      ],
      "name": "isApprovedForAll",
      "outputs": [
        {
          "internalType": "bool",
          "name": "",
          "type": "bool"
        }
      ],
      "stateMutability": "view",
      "type": "function"
    },
    {
      "inputs": [],
      "name": "name",
      "outputs": [
        {
          "internalType": "string",
          "name": "",
          "type": "string"
        }
      ],
      "stateMutability": "view",
      "type": "function"
    },
    {
      "inputs": [
        {
          "internalType": "uint256",
          "name": "tokenId",
          "type": "uint256"
        }
      ],
      "name": "ownerOf",
      "outputs": [
        {
          "internalType": "address",
          "name": "",
          "type": "address"
        }
      ],
      "stateMutability": "view",
      "type": "function"
    },
    {
      "inputs": [
        {
          "internalType": "uint256",
          "name": "Id",
          "type": "uint256"
        },
        {
          "internalType": "uint256",
          "name": "price",
          "type": "uint256"
        }
      ],
      "name": "resellNFT",
      "outputs": [],
      "stateMutability": "payable",
      "type": "function"
    },
    {
      "inputs": [
        {
          "internalType": "address",
          "name": "from",
          "type": "address"
        },
        {
          "internalType": "address",
          "name": "to",
          "type": "address"
        },
        {
          "internalType": "uint256",
          "name": "tokenId",
          "type": "uint256"
        }
      ],
      "name": "safeTransferFrom",
      "outputs": [],
      "stateMutability": "nonpayable",
      "type": "function"
    },
    {
      "inputs": [
        {
          "internalType": "address",
          "name": "from",
          "type": "address"
        },
        {
          "internalType": "address",
          "name": "to",
          "type": "address"
        },
        {
          "internalType": "uint256",
          "name": "tokenId",
          "type": "uint256"
        },
        {
          "internalType": "bytes",
          "name": "data",
          "type": "bytes"
        }
      ],
      "name": "safeTransferFrom",
      "outputs": [],
      "stateMutability": "nonpayable",
      "type": "function"
    },
    {
      "inputs": [
        {
          "internalType": "address",
          "name": "operator",
          "type": "address"
        },
        {
          "internalType": "bool",
          "name": "approved",
          "type": "bool"
        }
      ],
      "name": "setApprovalForAll",
      "outputs": [],
      "stateMutability": "nonpayable",
      "type": "function"
    },
    {
      "inputs": [
        {
          "internalType": "bytes4",
          "name": "interfaceId",
          "type": "bytes4"
        }
      ],
      "name": "supportsInterface",
      "outputs": [
        {
          "internalType": "bool",
          "name": "",
          "type": "bool"
        }
      ],
      "stateMutability": "view",
      "type": "function"
    },
    {
      "inputs": [],
      "name": "symbol",
      "outputs": [
        {
          "internalType": "string",
          "name": "",
          "type": "string"
        }
      ],
      "stateMutability": "view",
      "type": "function"
    },
    {
      "inputs": [
        {
          "internalType": "uint256",
          "name": "tokenId",
          "type": "uint256"
        }
      ],
      "name": "tokenURI",
      "outputs": [
        {
          "internalType": "string",
          "name": "",
          "type": "string"
        }
      ],
      "stateMutability": "view",
      "type": "function"
    },
    {
      "inputs": [],
      "name": "totalFees",
      "outputs": [
        {
          "internalType": "uint256",
          "name": "",
          "type": "uint256"
        }
      ],
      "stateMutability": "view",
      "type": "function"
    },
    {
      "inputs": [
        {
          "internalType": "address",
          "name": "from",
          "type": "address"
        },
        {
          "internalType": "address",
          "name": "to",
          "type": "address"
        },
        {
          "internalType": "uint256",
          "name": "tokenId",
          "type": "uint256"
        }
      ],
      "name": "transferFrom",
      "outputs": [],
      "stateMutability": "nonpayable",
      "type": "function"
    },
    {
      "inputs": [],
      "name": "withdrawFees",
      "outputs": [],
      "stateMutability": "nonpayable",
      "type": "function"
    }
  ],
  "bytecode": "0x608060405266b1a2bc2ec50000600b5534801561001b57600080fd5b50604051614e74380380614e74833981810160405281019061003d919061023e565b8181816000908161004e91906104d7565b50806001908161005e91906104d7565b505050816007908161007091906104d7565b50806008908161008091906104d7565b5033600d60006101000a81548173ffffffffffffffffffffffffffffffffffffffff021916908373ffffffffffffffffffffffffffffffffffffffff16021790555050506105a9565b6000604051905090565b600080fd5b600080fd5b600080fd5b600080fd5b6000601f19601f8301169050919050565b7f4e487b7100000000000000000000000000000000000000000000000000000000600052604160045260246000fd5b610130826100e7565b810181811067ffffffffffffffff8211171561014f5761014e6100f8565b5b80604052505050565b60006101626100c9565b905061016e8282610127565b919050565b600067ffffffffffffffff82111561018e5761018d6100f8565b5b610197826100e7565b9050602081019050919050565b60005b838110156101c25780820151818401526020810190506101a7565b60008484015250505050565b60006101e16101dc84610173565b610158565b9050828152602081018484840111156101fd576101fc6100e2565b5b6102088482856101a4565b509392505050565b600082601f830112610225576102246100dd565b5b81516102358482602086016101ce565b91505092915050565b60008060408385031215610255576102546100d3565b5b600083015167ffffffffffffffff811115610273576102726100d8565b5b61027f85828601610210565b925050602083015167ffffffffffffffff8111156102a05761029f6100d8565b5b6102ac85828601610210565b9150509250929050565b600081519050919050565b7f4e487b7100000000000000000000000000000000000000000000000000000000600052602260045260246000fd5b6000600282049050600182168061030857607f821691505b60208210810361031b5761031a6102c1565b5b50919050565b60008190508160005260206000209050919050565b60006020601f8301049050919050565b600082821b905092915050565b6000600883026103837fffffffffffffffffffffffffffffffffffffffffffffffffffffffffffffffff82610346565b61038d8683610346565b95508019841693508086168417925050509392505050565b6000819050919050565b6000819050919050565b60006103d46103cf6103ca846103a5565b6103af565b6103a5565b9050919050565b6000819050919050565b6103ee836103b9565b6104026103fa826103db565b848454610353565b825550505050565b600090565b61041761040a565b6104228184846103e5565b505050565b5b818110156104465761043b60008261040f565b600181019050610428565b5050565b601f82111561048b5761045c81610321565b61046584610336565b81016020851015610474578190505b61048861048085610336565b830182610427565b50505b505050565b600082821c905092915050565b60006104ae60001984600802610490565b1980831691505092915050565b60006104c7838361049d565b9150826002028217905092915050565b6104e0826102b6565b67ffffffffffffffff8111156104f9576104f86100f8565b5b61050382546102f0565b61050e82828561044a565b600060209050601f831160018114610541576000841561052f578287015190505b61053985826104bb565b8655506105a1565b601f19841661054f86610321565b60005b8281101561057757848901518255600182019150602085019450602081019050610552565b868310156105945784890151610590601f89168261049d565b8355505b6001600288020188555050505b505050505050565b6148bc806105b86000396000f3fe6080604052600436106101b75760003560e01c806363ba31cf116100ec578063be9af5361161008a578063caf5069011610064578063caf50690146105d6578063d28d885214610601578063d64a008a1461062c578063e985e9c514610648576101b7565b8063be9af53614610552578063c87b56dd1461056e578063cad7d033146105ab576101b7565b8063a22cb465116100c6578063a22cb465146104b9578063ac3dfc73146104e2578063b09f1266146104fe578063b88d4fde14610529576101b7565b806363ba31cf1461042657806370a082311461045157806395d89b411461048e576101b7565b8063268291551161015957806342199f881161013357806342199f881461037e57806342842e0e146103a9578063476343ee146103d25780636352211e146103e9576101b7565b806326829155146103095780632890e0d714610339578063361c199514610355576101b7565b8063095ea7b311610195578063095ea7b31461026157806312e855851461028a57806313114a9d146102b557806323b872dd146102e0576101b7565b806301ffc9a7146101bc57806306fdde03146101f9578063081812fc14610224575b600080fd5b3480156101c857600080fd5b506101e360048036038101906101de91906136f4565b610685565b6040516101f0919061373c565b60405180910390f35b34801561020557600080fd5b5061020e6106e6565b60405161021b91906137e7565b60405180910390f35b34801561023057600080fd5b5061024b6004803603810190610246919061383f565b610778565b60405161025891906138ad565b60405180910390f35b34801561026d57600080fd5b50610288600480360381019061028391906138f4565b610794565b005b34801561029657600080fd5b5061029f6107aa565b6040516102ac9190613943565b60405180910390f35b3480156102c157600080fd5b506102ca6107b4565b6040516102d79190613943565b60405180910390f35b3480156102ec57600080fd5b506103076004803603810190610302919061395e565b6107ba565b005b610323600480360381019061031e9190613ae6565b6108bc565b6040516103309190613943565b60405180910390f35b610353600480360381019061034e919061383f565b610963565b005b34801561036157600080fd5b5061037c60048036038101906103779190613b42565b610ab5565b005b34801561038a57600080fd5b50610393610d46565b6040516103a09190613d56565b60405180910390f35b3480156103b557600080fd5b506103d060048036038101906103cb919061395e565b611024565b005b3480156103de57600080fd5b506103e7611044565b005b3480156103f557600080fd5b50610410600480360381019061040b919061383f565b6110b1565b60405161041d91906138ad565b60405180910390f35b34801561043257600080fd5b5061043b6110c3565b6040516104489190613d56565b60405180910390f35b34801561045d57600080fd5b5061047860048036038101906104739190613d78565b611421565b6040516104859190613943565b60405180910390f35b34801561049a57600080fd5b506104a36114db565b6040516104b091906137e7565b60405180910390f35b3480156104c557600080fd5b506104e060048036038101906104db9190613dd1565b61156d565b005b6104fc60048036038101906104f79190613b42565b611583565b005b34801561050a57600080fd5b50610513611742565b60405161052091906137e7565b60405180910390f35b34801561053557600080fd5b50610550600480360381019061054b9190613eb2565b6117d0565b005b61056c6004803603810190610567919061383f565b6117f5565b005b34801561057a57600080fd5b506105956004803603810190610590919061383f565b6119d3565b6040516105a291906137e7565b60405180910390f35b3480156105b757600080fd5b506105c0611ae6565b6040516105cd9190613d56565b60405180910390f35b3480156105e257600080fd5b506105eb611eb9565b6040516105f89190613d56565b60405180910390f35b34801561060d57600080fd5b5061061661230d565b60405161062391906137e7565b60405180910390f35b6106466004803603810190610641919061383f565b61239b565b005b34801561065457600080fd5b5061066f600480360381019061066a9190613f35565b61245e565b60405161067c919061373c565b60405180910390f35b6000634906490660e01b7bffffffffffffffffffffffffffffffffffffffffffffffffffffffff1916827bffffffffffffffffffffffffffffffffffffffffffffffffffffffff191614806106df57506106de826124f2565b5b9050919050565b6060600080546106f590613fa4565b80601f016020809104026020016040519081016040528092919081815260200182805461072190613fa4565b801561076e5780601f106107435761010080835404028352916020019161076e565b820191906000526020600020905b81548152906001019060200180831161075157829003601f168201915b5050505050905090565b6000610783826125d4565b5061078d8261265c565b9050919050565b6107a682826107a1612699565b6126a1565b5050565b6000600b54905090565b600c5481565b600073ffffffffffffffffffffffffffffffffffffffff168273ffffffffffffffffffffffffffffffffffffffff160361082c5760006040517f64a0ae9200000000000000000000000000000000000000000000000000000000815260040161082391906138ad565b60405180910390fd5b6000610840838361083b612699565b6126b3565b90508373ffffffffffffffffffffffffffffffffffffffff168173ffffffffffffffffffffffffffffffffffffffff16146108b6578382826040517f64283d7b0000000000000000000000000000000000000000000000000000000081526004016108ad93929190613fd5565b60405180910390fd5b50505050565b6000600b54341015610903576040517f08c379a00000000000000000000000000000000000000000000000000000000081526004016108fa9061407e565b60405180910390fd5b60096000815480929190610916906140cd565b91905055506000600954905034600c60008282546109349190614115565b9250508190555061094533826128cd565b61094f81856129c6565b6109598184610ab5565b8091505092915050565b600b5434101561097257600080fd5b3373ffffffffffffffffffffffffffffffffffffffff16610992826110b1565b73ffffffffffffffffffffffffffffffffffffffff16146109e8576040517f08c379a00000000000000000000000000000000000000000000000000000000081526004016109df906141bb565b60405180910390fd5b34600c60008282546109fa9190614115565b92505081905550610a0a81612a22565b600e6000828152602001908152602001600020600080820160009055600182016000610a3691906135c7565b6002820160006101000a81549073ffffffffffffffffffffffffffffffffffffffff02191690556003820160006101000a81549073ffffffffffffffffffffffffffffffffffffffff021916905560048201600090556005820160006101000a81549060ff02191690555050610aaa611044565b6000600c8190555050565b60008111610af8576040517f08c379a0000000000000000000000000000000000000000000000000000000008152600401610aef90614227565b60405180910390fd5b6000610b03836119d3565b9050600e600084815260200190815260200160002060020160009054906101000a900473ffffffffffffffffffffffffffffffffffffffff1673ffffffffffffffffffffffffffffffffffffffff163373ffffffffffffffffffffffffffffffffffffffff1603610b7357600080fd5b6040518060c001604052808481526020018281526020013373ffffffffffffffffffffffffffffffffffffffff1681526020013073ffffffffffffffffffffffffffffffffffffffff16815260200183815260200160001515815250600e6000858152602001908152602001600020600082015181600001556020820151816001019081610c0191906143f3565b5060408201518160020160006101000a81548173ffffffffffffffffffffffffffffffffffffffff021916908373ffffffffffffffffffffffffffffffffffffffff16021790555060608201518160030160006101000a81548173ffffffffffffffffffffffffffffffffffffffff021916908373ffffffffffffffffffffffffffffffffffffffff1602179055506080820151816004015560a08201518160050160006101000a81548160ff021916908315150217905550905050610cc8333085612aa8565b610cd0611044565b6000600c819055503073ffffffffffffffffffffffffffffffffffffffff163373ffffffffffffffffffffffffffffffffffffffff16847fdebdb32cb5230ab727c9c361b16fdb2015df225c10e6a3e7f60ecd5dc5be4516856000604051610d399291906144c5565b60405180910390a4505050565b6060600060095490506000600a54600954610d6191906144ee565b90506000808267ffffffffffffffff811115610d8057610d7f6139bb565b5b604051908082528060200260200182016040528015610db957816020015b610da6613607565b815260200190600190039081610d9e5790505b50905060005b84811015611019573073ffffffffffffffffffffffffffffffffffffffff16600e6000600184610def9190614115565b815260200190815260200160002060030160009054906101000a900473ffffffffffffffffffffffffffffffffffffffff1673ffffffffffffffffffffffffffffffffffffffff160361100c576000600182610e4b9190614115565b90506000600e60008381526020019081526020016000209050806040518060c001604052908160008201548152602001600182018054610e8a90613fa4565b80601f0160208091040260200160405190810160405280929190818152602001828054610eb690613fa4565b8015610f035780601f10610ed857610100808354040283529160200191610f03565b820191906000526020600020905b815481529060010190602001808311610ee657829003601f168201915b505050505081526020016002820160009054906101000a900473ffffffffffffffffffffffffffffffffffffffff1673ffffffffffffffffffffffffffffffffffffffff1673ffffffffffffffffffffffffffffffffffffffff1681526020016003820160009054906101000a900473ffffffffffffffffffffffffffffffffffffffff1673ffffffffffffffffffffffffffffffffffffffff1673ffffffffffffffffffffffffffffffffffffffff168152602001600482015481526020016005820160009054906101000a900460ff161515151581525050848681518110610ff057610fef614522565b5b60200260200101819052508480611006906140cd565b95505050505b8080600101915050610dbf565b508094505050505090565b61103f838383604051806020016040528060008152506117d0565b505050565b600d60009054906101000a900473ffffffffffffffffffffffffffffffffffffffff1673ffffffffffffffffffffffffffffffffffffffff166108fc600c549081150290604051600060405180830381858888f193505050501580156110ae573d6000803e3d6000fd5b50565b60006110bc826125d4565b9050919050565b6060600060095490506000805b8281101561116a57600073ffffffffffffffffffffffffffffffffffffffff16600e60006001846111019190614115565b815260200190815260200160002060030160009054906101000a900473ffffffffffffffffffffffffffffffffffffffff1673ffffffffffffffffffffffffffffffffffffffff161461115d578180611159906140cd565b9250505b80806001019150506110d0565b5060008167ffffffffffffffff811115611187576111866139bb565b5b6040519080825280602002602001820160405280156111c057816020015b6111ad613607565b8152602001906001900390816111a55790505b5090506000805b8481101561141657600073ffffffffffffffffffffffffffffffffffffffff16600e60006001846111f89190614115565b815260200190815260200160002060030160009054906101000a900473ffffffffffffffffffffffffffffffffffffffff1673ffffffffffffffffffffffffffffffffffffffff161461140957600e60006001836112569190614115565b81526020019081526020016000206040518060c00160405290816000820154815260200160018201805461128990613fa4565b80601f01602080910402602001604051908101604052809291908181526020018280546112b590613fa4565b80156113025780601f106112d757610100808354040283529160200191611302565b820191906000526020600020905b8154815290600101906020018083116112e557829003601f168201915b505050505081526020016002820160009054906101000a900473ffffffffffffffffffffffffffffffffffffffff1673ffffffffffffffffffffffffffffffffffffffff1673ffffffffffffffffffffffffffffffffffffffff1681526020016003820160009054906101000a900473ffffffffffffffffffffffffffffffffffffffff1673ffffffffffffffffffffffffffffffffffffffff1673ffffffffffffffffffffffffffffffffffffffff168152602001600482015481526020016005820160009054906101000a900460ff1615151515815250508383815181106113ef576113ee614522565b5b60200260200101819052508180611405906140cd565b9250505b80806001019150506111c7565b508194505050505090565b60008073ffffffffffffffffffffffffffffffffffffffff168273ffffffffffffffffffffffffffffffffffffffff16036114945760006040517f89c62b6400000000000000000000000000000000000000000000000000000000815260040161148b91906138ad565b60405180910390fd5b600360008373ffffffffffffffffffffffffffffffffffffffff1673ffffffffffffffffffffffffffffffffffffffff168152602001908152602001600020549050919050565b6060600180546114ea90613fa4565b80601f016020809104026020016040519081016040528092919081815260200182805461151690613fa4565b80156115635780601f1061153857610100808354040283529160200191611563565b820191906000526020600020905b81548152906001019060200180831161154657829003601f168201915b5050505050905090565b61157f611578612699565b8383612c15565b5050565b3373ffffffffffffffffffffffffffffffffffffffff16600e600084815260200190815260200160002060030160009054906101000a900473ffffffffffffffffffffffffffffffffffffffff1673ffffffffffffffffffffffffffffffffffffffff1614611627576040517f08c379a000000000000000000000000000000000000000000000000000000000815260040161161e906145c3565b60405180910390fd5b6000600e600084815260200190815260200160002060050160006101000a81548160ff02191690831515021790555080600e60008481526020019081526020016000206004018190555033600e600084815260200190815260200160002060020160006101000a81548173ffffffffffffffffffffffffffffffffffffffff021916908373ffffffffffffffffffffffffffffffffffffffff16021790555030600e600084815260200190815260200160002060030160006101000a81548173ffffffffffffffffffffffffffffffffffffffff021916908373ffffffffffffffffffffffffffffffffffffffff160217905550600a600081548092919061172e906145e3565b919050555061173e333084612aa8565b5050565b6008805461174f90613fa4565b80601f016020809104026020016040519081016040528092919081815260200182805461177b90613fa4565b80156117c85780601f1061179d576101008083540402835291602001916117c8565b820191906000526020600020905b8154815290600101906020018083116117ab57829003601f168201915b505050505081565b6117db8484846107ba565b6117ef6117e6612699565b85858585612d84565b50505050565b6000600e600083815260200190815260200160002060040154905080341015611853576040517f08c379a000000000000000000000000000000000000000000000000000000000815260040161184a9061407e565b60405180910390fd5b60006064600583611864919061460c565b61186e919061467d565b90506000818361187e91906144ee565b905033600e600086815260200190815260200160002060030160006101000a81548173ffffffffffffffffffffffffffffffffffffffff021916908373ffffffffffffffffffffffffffffffffffffffff1602179055506001600e600086815260200190815260200160002060050160006101000a81548160ff021916908315150217905550600a6000815480929190611917906140cd565b919050555081600c600082825461192e9190614115565b92505081905550611940303386612aa8565b600e600085815260200190815260200160002060020160009054906101000a900473ffffffffffffffffffffffffffffffffffffffff1673ffffffffffffffffffffffffffffffffffffffff166108fc829081150290604051600060405180830381858888f193505050501580156119bc573d6000803e3d6000fd5b506119c5611044565b6000600c8190555050505050565b60606119de826125d4565b5060006006600084815260200190815260200160002080546119ff90613fa4565b80601f0160208091040260200160405190810160405280929190818152602001828054611a2b90613fa4565b8015611a785780601f10611a4d57610100808354040283529160200191611a78565b820191906000526020600020905b815481529060010190602001808311611a5b57829003601f168201915b505050505090506000611a89612f35565b90506000815103611a9e578192505050611ae1565b600082511115611ad3578082604051602001611abb9291906146ea565b60405160208183030381529060405292505050611ae1565b611adc84612f4c565b925050505b919050565b6060600060095490506000805b82811015611b8c573373ffffffffffffffffffffffffffffffffffffffff16600e6000600184611b239190614115565b815260200190815260200160002060030160009054906101000a900473ffffffffffffffffffffffffffffffffffffffff1673ffffffffffffffffffffffffffffffffffffffff1603611b7f578180611b7b906140cd565b9250505b8080600101915050611af3565b5060008167ffffffffffffffff811115611ba957611ba86139bb565b5b604051908082528060200260200182016040528015611be257816020015b611bcf613607565b815260200190600190039081611bc75790505b5090506000805b84811015611eae573373ffffffffffffffffffffffffffffffffffffffff16600e6000600184611c199190614115565b815260200190815260200160002060030160009054906101000a900473ffffffffffffffffffffffffffffffffffffffff1673ffffffffffffffffffffffffffffffffffffffff1603611ea157600073ffffffffffffffffffffffffffffffffffffffff16600e6000600184611c8f9190614115565b815260200190815260200160002060030160009054906101000a900473ffffffffffffffffffffffffffffffffffffffff1673ffffffffffffffffffffffffffffffffffffffff1614611ea057600e6000600183611ced9190614115565b81526020019081526020016000206040518060c001604052908160008201548152602001600182018054611d2090613fa4565b80601f0160208091040260200160405190810160405280929190818152602001828054611d4c90613fa4565b8015611d995780601f10611d6e57610100808354040283529160200191611d99565b820191906000526020600020905b815481529060010190602001808311611d7c57829003601f168201915b505050505081526020016002820160009054906101000a900473ffffffffffffffffffffffffffffffffffffffff1673ffffffffffffffffffffffffffffffffffffffff1673ffffffffffffffffffffffffffffffffffffffff1681526020016003820160009054906101000a900473ffffffffffffffffffffffffffffffffffffffff1673ffffffffffffffffffffffffffffffffffffffff1673ffffffffffffffffffffffffffffffffffffffff168152602001600482015481526020016005820160009054906101000a900460ff161515151581525050838381518110611e8657611e85614522565b5b60200260200101819052508180611e9c906140cd565b9250505b5b8080600101915050611be9565b508194505050505090565b6060600060095490506000805b82811015611fdb573373ffffffffffffffffffffffffffffffffffffffff16600e6000600184611ef69190614115565b815260200190815260200160002060020160009054906101000a900473ffffffffffffffffffffffffffffffffffffffff1673ffffffffffffffffffffffffffffffffffffffff16148015611fba5750600073ffffffffffffffffffffffffffffffffffffffff16600e6000600184611f6f9190614115565b815260200190815260200160002060020160009054906101000a900473ffffffffffffffffffffffffffffffffffffffff1673ffffffffffffffffffffffffffffffffffffffff1614155b15611fce578180611fca906140cd565b9250505b8080600101915050611ec6565b5060008167ffffffffffffffff811115611ff857611ff76139bb565b5b60405190808252806020026020018201604052801561203157816020015b61201e613607565b8152602001906001900390816120165790505b5090506000805b84811015612302573373ffffffffffffffffffffffffffffffffffffffff16600e60006001846120689190614115565b815260200190815260200160002060020160009054906101000a900473ffffffffffffffffffffffffffffffffffffffff1673ffffffffffffffffffffffffffffffffffffffff1614801561212c5750600073ffffffffffffffffffffffffffffffffffffffff16600e60006001846120e19190614115565b815260200190815260200160002060020160009054906101000a900473ffffffffffffffffffffffffffffffffffffffff1673ffffffffffffffffffffffffffffffffffffffff1614155b156122f557600e60006001836121429190614115565b81526020019081526020016000206040518060c00160405290816000820154815260200160018201805461217590613fa4565b80601f01602080910402602001604051908101604052809291908181526020018280546121a190613fa4565b80156121ee5780601f106121c3576101008083540402835291602001916121ee565b820191906000526020600020905b8154815290600101906020018083116121d157829003601f168201915b505050505081526020016002820160009054906101000a900473ffffffffffffffffffffffffffffffffffffffff1673ffffffffffffffffffffffffffffffffffffffff1673ffffffffffffffffffffffffffffffffffffffff1681526020016003820160009054906101000a900473ffffffffffffffffffffffffffffffffffffffff1673ffffffffffffffffffffffffffffffffffffffff1673ffffffffffffffffffffffffffffffffffffffff168152602001600482015481526020016005820160009054906101000a900460ff1615151515815250508383815181106122db576122da614522565b5b602002602001018190525081806122f1906140cd565b9250505b8080600101915050612038565b508194505050505090565b6007805461231a90613fa4565b80601f016020809104026020016040519081016040528092919081815260200182805461234690613fa4565b80156123935780601f1061236857610100808354040283529160200191612393565b820191906000526020600020905b81548152906001019060200180831161237657829003601f168201915b505050505081565b600d60009054906101000a900473ffffffffffffffffffffffffffffffffffffffff1673ffffffffffffffffffffffffffffffffffffffff163373ffffffffffffffffffffffffffffffffffffffff161461242b576040517f08c379a00000000000000000000000000000000000000000000000000000000081526004016124229061475a565b60405180910390fd5b34600c600082825461243d9190614115565b9250508190555080600b81905550612453611044565b6000600c8190555050565b6000600560008473ffffffffffffffffffffffffffffffffffffffff1673ffffffffffffffffffffffffffffffffffffffff16815260200190815260200160002060008373ffffffffffffffffffffffffffffffffffffffff1673ffffffffffffffffffffffffffffffffffffffff16815260200190815260200160002060009054906101000a900460ff16905092915050565b60007f80ac58cd000000000000000000000000000000000000000000000000000000007bffffffffffffffffffffffffffffffffffffffffffffffffffffffff1916827bffffffffffffffffffffffffffffffffffffffffffffffffffffffff191614806125bd57507f5b5e139f000000000000000000000000000000000000000000000000000000007bffffffffffffffffffffffffffffffffffffffffffffffffffffffff1916827bffffffffffffffffffffffffffffffffffffffffffffffffffffffff1916145b806125cd57506125cc82612fb5565b5b9050919050565b6000806125e08361301f565b9050600073ffffffffffffffffffffffffffffffffffffffff168173ffffffffffffffffffffffffffffffffffffffff160361265357826040517f7e27328900000000000000000000000000000000000000000000000000000000815260040161264a9190613943565b60405180910390fd5b80915050919050565b60006004600083815260200190815260200160002060009054906101000a900473ffffffffffffffffffffffffffffffffffffffff169050919050565b600033905090565b6126ae838383600161305c565b505050565b6000806126bf8461301f565b9050600073ffffffffffffffffffffffffffffffffffffffff168373ffffffffffffffffffffffffffffffffffffffff161461270157612700818486613221565b5b600073ffffffffffffffffffffffffffffffffffffffff168173ffffffffffffffffffffffffffffffffffffffff16146127925761274360008560008061305c565b6001600360008373ffffffffffffffffffffffffffffffffffffffff1673ffffffffffffffffffffffffffffffffffffffff168152602001908152602001600020600082825403925050819055505b600073ffffffffffffffffffffffffffffffffffffffff168573ffffffffffffffffffffffffffffffffffffffff1614612815576001600360008773ffffffffffffffffffffffffffffffffffffffff1673ffffffffffffffffffffffffffffffffffffffff168152602001908152602001600020600082825401925050819055505b846002600086815260200190815260200160002060006101000a81548173ffffffffffffffffffffffffffffffffffffffff021916908373ffffffffffffffffffffffffffffffffffffffff160217905550838573ffffffffffffffffffffffffffffffffffffffff168273ffffffffffffffffffffffffffffffffffffffff167fddf252ad1be2c89b69c2b068fc378daa952ba7f163c4a11628f55a4df523b3ef60405160405180910390a4809150509392505050565b600073ffffffffffffffffffffffffffffffffffffffff168273ffffffffffffffffffffffffffffffffffffffff160361293f5760006040517f64a0ae9200000000000000000000000000000000000000000000000000000000815260040161293691906138ad565b60405180910390fd5b600061294d838360006126b3565b9050600073ffffffffffffffffffffffffffffffffffffffff168173ffffffffffffffffffffffffffffffffffffffff16146129c15760006040517f73c6ac6e0000000000000000000000000000000000000000000000000000000081526004016129b891906138ad565b60405180910390fd5b505050565b806006600084815260200190815260200160002090816129e691906143f3565b507ff8e1a15aba9398e019f0b49df1a4fde98ee17ae345cb5f6b5e2c27f5033e8ce782604051612a169190613943565b60405180910390a15050565b6000612a3160008360006126b3565b9050600073ffffffffffffffffffffffffffffffffffffffff168173ffffffffffffffffffffffffffffffffffffffff1603612aa457816040517f7e273289000000000000000000000000000000000000000000000000000000008152600401612a9b9190613943565b60405180910390fd5b5050565b600073ffffffffffffffffffffffffffffffffffffffff168273ffffffffffffffffffffffffffffffffffffffff1603612b1a5760006040517f64a0ae92000000000000000000000000000000000000000000000000000000008152600401612b1191906138ad565b60405180910390fd5b6000612b28838360006126b3565b9050600073ffffffffffffffffffffffffffffffffffffffff168173ffffffffffffffffffffffffffffffffffffffff1603612b9b57816040517f7e273289000000000000000000000000000000000000000000000000000000008152600401612b929190613943565b60405180910390fd5b8373ffffffffffffffffffffffffffffffffffffffff168173ffffffffffffffffffffffffffffffffffffffff1614612c0f578382826040517f64283d7b000000000000000000000000000000000000000000000000000000008152600401612c0693929190613fd5565b60405180910390fd5b50505050565b600073ffffffffffffffffffffffffffffffffffffffff168273ffffffffffffffffffffffffffffffffffffffff1603612c8657816040517f5b08ba18000000000000000000000000000000000000000000000000000000008152600401612c7d91906138ad565b60405180910390fd5b80600560008573ffffffffffffffffffffffffffffffffffffffff1673ffffffffffffffffffffffffffffffffffffffff16815260200190815260200160002060008473ffffffffffffffffffffffffffffffffffffffff1673ffffffffffffffffffffffffffffffffffffffff16815260200190815260200160002060006101000a81548160ff0219169083151502179055508173ffffffffffffffffffffffffffffffffffffffff168373ffffffffffffffffffffffffffffffffffffffff167f17307eab39ab6107e8899845ad3d59bd9653f200f220920489ca2b5937696c3183604051612d77919061373c565b60405180910390a3505050565b60008373ffffffffffffffffffffffffffffffffffffffff163b1115612f2e578273ffffffffffffffffffffffffffffffffffffffff1663150b7a02868685856040518563ffffffff1660e01b8152600401612de394939291906147cf565b6020604051808303816000875af1925050508015612e1f57506040513d601f19601f82011682018060405250810190612e1c9190614830565b60015b612ea3573d8060008114612e4f576040519150601f19603f3d011682016040523d82523d6000602084013e612e54565b606091505b506000815103612e9b57836040517f64a0ae92000000000000000000000000000000000000000000000000000000008152600401612e9291906138ad565b60405180910390fd5b805181602001fd5b63150b7a0260e01b7bffffffffffffffffffffffffffffffffffffffffffffffffffffffff1916817bffffffffffffffffffffffffffffffffffffffffffffffffffffffff191614612f2c57836040517f64a0ae92000000000000000000000000000000000000000000000000000000008152600401612f2391906138ad565b60405180910390fd5b505b5050505050565b606060405180602001604052806000815250905090565b6060612f57826125d4565b506000612f62612f35565b90506000815111612f825760405180602001604052806000815250612fad565b80612f8c846132e5565b604051602001612f9d9291906146ea565b6040516020818303038152906040525b915050919050565b60007f01ffc9a7000000000000000000000000000000000000000000000000000000007bffffffffffffffffffffffffffffffffffffffffffffffffffffffff1916827bffffffffffffffffffffffffffffffffffffffffffffffffffffffff1916149050919050565b60006002600083815260200190815260200160002060009054906101000a900473ffffffffffffffffffffffffffffffffffffffff169050919050565b80806130955750600073ffffffffffffffffffffffffffffffffffffffff168273ffffffffffffffffffffffffffffffffffffffff1614155b156131c95760006130a5846125d4565b9050600073ffffffffffffffffffffffffffffffffffffffff168373ffffffffffffffffffffffffffffffffffffffff161415801561311057508273ffffffffffffffffffffffffffffffffffffffff168173ffffffffffffffffffffffffffffffffffffffff1614155b80156131235750613121818461245e565b155b1561316557826040517fa9fbf51f00000000000000000000000000000000000000000000000000000000815260040161315c91906138ad565b60405180910390fd5b81156131c757838573ffffffffffffffffffffffffffffffffffffffff168273ffffffffffffffffffffffffffffffffffffffff167f8c5be1e5ebec7d5bd14f71427d1e84f3dd0314c0f7b2291e5b200ac8c7c3b92560405160405180910390a45b505b836004600085815260200190815260200160002060006101000a81548173ffffffffffffffffffffffffffffffffffffffff021916908373ffffffffffffffffffffffffffffffffffffffff16021790555050505050565b61322c8383836133b3565b6132e057600073ffffffffffffffffffffffffffffffffffffffff168373ffffffffffffffffffffffffffffffffffffffff16036132a157806040517f7e2732890000000000000000000000000000000000000000000000000000000081526004016132989190613943565b60405180910390fd5b81816040517f177e802f0000000000000000000000000000000000000000000000000000000081526004016132d792919061485d565b60405180910390fd5b505050565b6060600060016132f484613474565b01905060008167ffffffffffffffff811115613313576133126139bb565b5b6040519080825280601f01601f1916602001820160405280156133455781602001600182028036833780820191505090505b509050600082602001820190505b6001156133a8578080600190039150507f3031323334353637383961626364656600000000000000000000000000000000600a86061a8153600a858161339c5761339b61464e565b5b04945060008503613353575b819350505050919050565b60008073ffffffffffffffffffffffffffffffffffffffff168373ffffffffffffffffffffffffffffffffffffffff161415801561346b57508273ffffffffffffffffffffffffffffffffffffffff168473ffffffffffffffffffffffffffffffffffffffff16148061342c575061342b848461245e565b5b8061346a57508273ffffffffffffffffffffffffffffffffffffffff166134528361265c565b73ffffffffffffffffffffffffffffffffffffffff16145b5b90509392505050565b600080600090507a184f03e93ff9f4daa797ed6e38ed64bf6a1f01000000000000000083106134d2577a184f03e93ff9f4daa797ed6e38ed64bf6a1f01000000000000000083816134c8576134c761464e565b5b0492506040810190505b6d04ee2d6d415b85acef8100000000831061350f576d04ee2d6d415b85acef810000000083816135055761350461464e565b5b0492506020810190505b662386f26fc10000831061353e57662386f26fc1000083816135345761353361464e565b5b0492506010810190505b6305f5e1008310613567576305f5e100838161355d5761355c61464e565b5b0492506008810190505b612710831061358c5761271083816135825761358161464e565b5b0492506004810190505b606483106135af57606483816135a5576135a461464e565b5b0492506002810190505b600a83106135be576001810190505b80915050919050565b5080546135d390613fa4565b6000825580601f106135e55750613604565b601f016020900490600052602060002090810190613603919061366b565b5b50565b6040518060c001604052806000815260200160608152602001600073ffffffffffffffffffffffffffffffffffffffff168152602001600073ffffffffffffffffffffffffffffffffffffffff168152602001600081526020016000151581525090565b5b8082111561368457600081600090555060010161366c565b5090565b6000604051905090565b600080fd5b600080fd5b60007fffffffff0000000000000000000000000000000000000000000000000000000082169050919050565b6136d18161369c565b81146136dc57600080fd5b50565b6000813590506136ee816136c8565b92915050565b60006020828403121561370a57613709613692565b5b6000613718848285016136df565b91505092915050565b60008115159050919050565b61373681613721565b82525050565b6000602082019050613751600083018461372d565b92915050565b600081519050919050565b600082825260208201905092915050565b60005b83811015613791578082015181840152602081019050613776565b60008484015250505050565b6000601f19601f8301169050919050565b60006137b982613757565b6137c38185613762565b93506137d3818560208601613773565b6137dc8161379d565b840191505092915050565b6000602082019050818103600083015261380181846137ae565b905092915050565b6000819050919050565b61381c81613809565b811461382757600080fd5b50565b60008135905061383981613813565b92915050565b60006020828403121561385557613854613692565b5b60006138638482850161382a565b91505092915050565b600073ffffffffffffffffffffffffffffffffffffffff82169050919050565b60006138978261386c565b9050919050565b6138a78161388c565b82525050565b60006020820190506138c2600083018461389e565b92915050565b6138d18161388c565b81146138dc57600080fd5b50565b6000813590506138ee816138c8565b92915050565b6000806040838503121561390b5761390a613692565b5b6000613919858286016138df565b925050602061392a8582860161382a565b9150509250929050565b61393d81613809565b82525050565b60006020820190506139586000830184613934565b92915050565b60008060006060848603121561397757613976613692565b5b6000613985868287016138df565b9350506020613996868287016138df565b92505060406139a78682870161382a565b9150509250925092565b600080fd5b600080fd5b7f4e487b7100000000000000000000000000000000000000000000000000000000600052604160045260246000fd5b6139f38261379d565b810181811067ffffffffffffffff82111715613a1257613a116139bb565b5b80604052505050565b6000613a25613688565b9050613a3182826139ea565b919050565b600067ffffffffffffffff821115613a5157613a506139bb565b5b613a5a8261379d565b9050602081019050919050565b82818337600083830152505050565b6000613a89613a8484613a36565b613a1b565b905082815260208101848484011115613aa557613aa46139b6565b5b613ab0848285613a67565b509392505050565b600082601f830112613acd57613acc6139b1565b5b8135613add848260208601613a76565b91505092915050565b60008060408385031215613afd57613afc613692565b5b600083013567ffffffffffffffff811115613b1b57613b1a613697565b5b613b2785828601613ab8565b9250506020613b388582860161382a565b9150509250929050565b60008060408385031215613b5957613b58613692565b5b6000613b678582860161382a565b9250506020613b788582860161382a565b9150509250929050565b600081519050919050565b600082825260208201905092915050565b6000819050602082019050919050565b613bb781613809565b82525050565b600082825260208201905092915050565b6000613bd982613757565b613be38185613bbd565b9350613bf3818560208601613773565b613bfc8161379d565b840191505092915050565b6000613c128261386c565b9050919050565b613c2281613c07565b82525050565b613c3181613721565b82525050565b600060c083016000830151613c4f6000860182613bae565b5060208301518482036020860152613c678282613bce565b9150506040830151613c7c6040860182613c19565b506060830151613c8f6060860182613c19565b506080830151613ca26080860182613bae565b5060a0830151613cb560a0860182613c28565b508091505092915050565b6000613ccc8383613c37565b905092915050565b6000602082019050919050565b6000613cec82613b82565b613cf68185613b8d565b935083602082028501613d0885613b9e565b8060005b85811015613d445784840389528151613d258582613cc0565b9450613d3083613cd4565b925060208a01995050600181019050613d0c565b50829750879550505050505092915050565b60006020820190508181036000830152613d708184613ce1565b905092915050565b600060208284031215613d8e57613d8d613692565b5b6000613d9c848285016138df565b91505092915050565b613dae81613721565b8114613db957600080fd5b50565b600081359050613dcb81613da5565b92915050565b60008060408385031215613de857613de7613692565b5b6000613df6858286016138df565b9250506020613e0785828601613dbc565b9150509250929050565b600067ffffffffffffffff821115613e2c57613e2b6139bb565b5b613e358261379d565b9050602081019050919050565b6000613e55613e5084613e11565b613a1b565b905082815260208101848484011115613e7157613e706139b6565b5b613e7c848285613a67565b509392505050565b600082601f830112613e9957613e986139b1565b5b8135613ea9848260208601613e42565b91505092915050565b60008060008060808587031215613ecc57613ecb613692565b5b6000613eda878288016138df565b9450506020613eeb878288016138df565b9350506040613efc8782880161382a565b925050606085013567ffffffffffffffff811115613f1d57613f1c613697565b5b613f2987828801613e84565b91505092959194509250565b60008060408385031215613f4c57613f4b613692565b5b6000613f5a858286016138df565b9250506020613f6b858286016138df565b9150509250929050565b7f4e487b7100000000000000000000000000000000000000000000000000000000600052602260045260246000fd5b60006002820490506001821680613fbc57607f821691505b602082108103613fcf57613fce613f75565b5b50919050565b6000606082019050613fea600083018661389e565b613ff76020830185613934565b614004604083018461389e565b949350505050565b7f5072696365206d75737420626520657175616c20746f206c697374696e67207060008201527f7269636500000000000000000000000000000000000000000000000000000000602082015250565b6000614068602483613762565b91506140738261400c565b604082019050919050565b600060208201905081810360008301526140978161405b565b9050919050565b7f4e487b7100000000000000000000000000000000000000000000000000000000600052601160045260246000fd5b60006140d882613809565b91507fffffffffffffffffffffffffffffffffffffffffffffffffffffffffffffffff820361410a5761410961409e565b5b600182019050919050565b600061412082613809565b915061412b83613809565b92508282019050808211156141435761414261409e565b5b92915050565b7f596f7520617265206e6f7420746865206f776e6572206f66207468697320746f60008201527f6b656e0000000000000000000000000000000000000000000000000000000000602082015250565b60006141a5602383613762565b91506141b082614149565b604082019050919050565b600060208201905081810360008301526141d481614198565b9050919050565b7f5072696365206d7573742062652067726561746572207468616e203000000000600082015250565b6000614211601c83613762565b915061421c826141db565b602082019050919050565b6000602082019050818103600083015261424081614204565b9050919050565b60008190508160005260206000209050919050565b60006020601f8301049050919050565b600082821b905092915050565b6000600883026142a97fffffffffffffffffffffffffffffffffffffffffffffffffffffffffffffffff8261426c565b6142b3868361426c565b95508019841693508086168417925050509392505050565b6000819050919050565b60006142f06142eb6142e684613809565b6142cb565b613809565b9050919050565b6000819050919050565b61430a836142d5565b61431e614316826142f7565b848454614279565b825550505050565b600090565b614333614326565b61433e818484614301565b505050565b5b818110156143625761435760008261432b565b600181019050614344565b5050565b601f8211156143a75761437881614247565b6143818461425c565b81016020851015614390578190505b6143a461439c8561425c565b830182614343565b50505b505050565b600082821c905092915050565b60006143ca600019846008026143ac565b1980831691505092915050565b60006143e383836143b9565b9150826002028217905092915050565b6143fc82613757565b67ffffffffffffffff811115614415576144146139bb565b5b61441f8254613fa4565b61442a828285614366565b600060209050601f83116001811461445d576000841561444b578287015190505b61445585826143d7565b8655506144bd565b601f19841661446b86614247565b60005b828110156144935784890151825560018201915060208501945060208101905061446e565b868310156144b057848901516144ac601f8916826143b9565b8355505b6001600288020188555050505b505050505050565b60006040820190506144da6000830185613934565b6144e7602083018461372d565b9392505050565b60006144f982613809565b915061450483613809565b925082820390508181111561451c5761451b61409e565b5b92915050565b7f4e487b7100000000000000000000000000000000000000000000000000000000600052603260045260246000fd5b7f596f7520617265206e6f7420746865206f776e6572206f662074686973204e4660008201527f5400000000000000000000000000000000000000000000000000000000000000602082015250565b60006145ad602183613762565b91506145b882614551565b604082019050919050565b600060208201905081810360008301526145dc816145a0565b9050919050565b60006145ee82613809565b9150600082036146015761460061409e565b5b600182039050919050565b600061461782613809565b915061462283613809565b925082820261463081613809565b915082820484148315176146475761464661409e565b5b5092915050565b7f4e487b7100000000000000000000000000000000000000000000000000000000600052601260045260246000fd5b600061468882613809565b915061469383613809565b9250826146a3576146a261464e565b5b828204905092915050565b600081905092915050565b60006146c482613757565b6146ce81856146ae565b93506146de818560208601613773565b80840191505092915050565b60006146f682856146b9565b915061470282846146b9565b91508190509392505050565b7f4f6e6c79206f776e65722063616e205570646174652074686520707269636500600082015250565b6000614744601f83613762565b915061474f8261470e565b602082019050919050565b6000602082019050818103600083015261477381614737565b9050919050565b600081519050919050565b600082825260208201905092915050565b60006147a18261477a565b6147ab8185614785565b93506147bb818560208601613773565b6147c48161379d565b840191505092915050565b60006080820190506147e4600083018761389e565b6147f1602083018661389e565b6147fe6040830185613934565b81810360608301526148108184614796565b905095945050505050565b60008151905061482a816136c8565b92915050565b60006020828403121561484657614845613692565b5b60006148548482850161481b565b91505092915050565b6000604082019050614872600083018561389e565b61487f6020830184613934565b939250505056fea2646970667358221220d291a3554befbea07c281c6f543bbd5bc8af45fe6c60d6cd1dd9e94fe830441764736f6c634300081c0033",
  "linkReferences": {},
  "deployedLinkReferences": {}
}